{
  "contractName": "EventTicketsV2",
  "abi": [
    {
      "constant": true,
      "inputs": [],
      "name": "idGenerator",
      "outputs": [
        {
          "name": "",
          "type": "uint256"
        }
      ],
      "payable": false,
      "stateMutability": "view",
      "type": "function"
    },
    {
      "inputs": [],
      "payable": false,
      "stateMutability": "nonpayable",
      "type": "constructor"
    },
    {
      "anonymous": false,
      "inputs": [
        {
          "indexed": false,
          "name": "desc",
          "type": "string"
        },
        {
          "indexed": false,
          "name": "url",
          "type": "string"
        },
        {
          "indexed": false,
          "name": "ticketsAvailable",
          "type": "uint256"
        },
        {
          "indexed": false,
          "name": "eventId",
          "type": "uint256"
        }
      ],
      "name": "LogEventAdded",
      "type": "event"
    },
    {
      "anonymous": false,
      "inputs": [
        {
          "indexed": false,
          "name": "buyer",
          "type": "address"
        },
        {
          "indexed": false,
          "name": "eventId",
          "type": "uint256"
        },
        {
          "indexed": false,
          "name": "numTickets",
          "type": "uint256"
        }
      ],
      "name": "LogBuyTickets",
      "type": "event"
    },
    {
      "anonymous": false,
      "inputs": [
        {
          "indexed": false,
          "name": "accountRefunded",
          "type": "address"
        },
        {
          "indexed": false,
          "name": "eventId",
          "type": "uint256"
        },
        {
          "indexed": false,
          "name": "numTickets",
          "type": "uint256"
        }
      ],
      "name": "LogGetRefund",
      "type": "event"
    },
    {
      "anonymous": false,
      "inputs": [
        {
          "indexed": false,
          "name": "owner",
          "type": "address"
        },
        {
          "indexed": false,
          "name": "balance",
          "type": "uint256"
        },
        {
          "indexed": false,
          "name": "eventId",
          "type": "uint256"
        }
      ],
      "name": "LogEndSale",
      "type": "event"
    },
    {
      "constant": false,
      "inputs": [
        {
          "name": "_description",
          "type": "string"
        },
        {
          "name": "_URL",
          "type": "string"
        },
        {
          "name": "_totalTickets",
          "type": "uint256"
        }
      ],
      "name": "addEvent",
      "outputs": [
        {
          "name": "",
          "type": "uint256"
        }
      ],
      "payable": false,
      "stateMutability": "nonpayable",
      "type": "function"
    },
    {
      "constant": true,
      "inputs": [
        {
          "name": "eventId",
          "type": "uint256"
        }
      ],
      "name": "readEvent",
      "outputs": [
        {
          "name": "",
          "type": "string"
        },
        {
          "name": "",
          "type": "string"
        },
        {
          "name": "",
          "type": "uint256"
        },
        {
          "name": "",
          "type": "uint256"
        },
        {
          "name": "",
          "type": "bool"
        }
      ],
      "payable": false,
      "stateMutability": "view",
      "type": "function"
    },
    {
      "constant": false,
      "inputs": [
        {
          "name": "eventId",
          "type": "uint256"
        },
        {
          "name": "tickets",
          "type": "uint256"
        }
      ],
      "name": "buyTickets",
      "outputs": [],
      "payable": true,
      "stateMutability": "payable",
      "type": "function"
    },
    {
      "constant": false,
      "inputs": [
        {
          "name": "eventId",
          "type": "uint256"
        }
      ],
      "name": "getRefund",
      "outputs": [],
      "payable": false,
      "stateMutability": "nonpayable",
      "type": "function"
    },
    {
      "constant": true,
      "inputs": [
        {
          "name": "eventId",
          "type": "uint256"
        }
      ],
      "name": "getBuyerNumberTickets",
      "outputs": [
        {
          "name": "",
          "type": "uint256"
        }
      ],
      "payable": false,
      "stateMutability": "view",
      "type": "function"
    },
    {
      "constant": false,
      "inputs": [
        {
          "name": "eventId",
          "type": "uint256"
        }
      ],
      "name": "endSale",
      "outputs": [],
      "payable": false,
      "stateMutability": "nonpayable",
      "type": "function"
    }
  ],
  "bytecode": "0x6080604052606460015534801561001557600080fd5b50336000806101000a81548173ffffffffffffffffffffffffffffffffffffffff021916908373ffffffffffffffffffffffffffffffffffffffff160217905550610eba806100656000396000f3fe6080604052600436106100705760003560e01c80638627df461161004e5780638627df461461027c578063d2f0be99146102b4578063e1ba30a9146102ef578063e7bd92b91461042857610070565b806304d1a846146100755780633ddedd38146100b05780634da19f20146100ff575b600080fd5b34801561008157600080fd5b506100ae6004803603602081101561009857600080fd5b8101908080359060200190929190505050610453565b005b3480156100bc57600080fd5b506100e9600480360360208110156100d357600080fd5b810190808035906020019092919050505061060e565b6040518082815260200191505060405180910390f35b34801561010b57600080fd5b506102666004803603606081101561012257600080fd5b810190808035906020019064010000000081111561013f57600080fd5b82018360208201111561015157600080fd5b8035906020019184600183028401116401000000008311171561017357600080fd5b91908080601f016020809104026020016040519081016040528093929190818152602001838380828437600081840152601f19601f820116905080830192505050505050509192919290803590602001906401000000008111156101d657600080fd5b8201836020820111156101e857600080fd5b8035906020019184600183028401116401000000008311171561020a57600080fd5b91908080601f016020809104026020016040519081016040528093929190818152602001838380828437600081840152601f19601f8201169050808301925050505050505091929192908035906020019092919050505061066b565b6040518082815260200191505060405180910390f35b6102b26004803603604081101561029257600080fd5b8101908080359060200190929190803590602001909291905050506108bf565b005b3480156102c057600080fd5b506102ed600480360360208110156102d757600080fd5b8101908080359060200190929190505050610aa3565b005b3480156102fb57600080fd5b506103286004803603602081101561031257600080fd5b8101908080359060200190929190505050610c12565b60405180806020018060200186815260200185815260200184151515158152602001838103835288818151815260200191508051906020019080838360005b83811015610382578082015181840152602081019050610367565b50505050905090810190601f1680156103af5780820380516001836020036101000a031916815260200191505b50838103825287818151815260200191508051906020019080838360005b838110156103e85780820151818401526020810190506103cd565b50505050905090810190601f1680156104155780820380516001836020036101000a031916815260200191505b5097505050505050505060405180910390f35b34801561043457600080fd5b5061043d610de3565b6040518082815260200191505060405180910390f35b6000809054906101000a900473ffffffffffffffffffffffffffffffffffffffff1673ffffffffffffffffffffffffffffffffffffffff163373ffffffffffffffffffffffffffffffffffffffff16146104ac57600080fd5b60006003600083815260200190815260200160002060050160006101000a81548160ff0219169083151502179055506000809054906101000a900473ffffffffffffffffffffffffffffffffffffffff1673ffffffffffffffffffffffffffffffffffffffff166108fc6001546003600085815260200190815260200160002060030154029081150290604051600060405180830381858888f1935050505015801561055c573d6000803e3d6000fd5b507f6497e6dff32a753fe6b3a2b3430e5f86d65c6e35cf360d52eb3494711d7d7a1c6000809054906101000a900473ffffffffffffffffffffffffffffffffffffffff1660015460036000858152602001908152602001600020600301540283604051808473ffffffffffffffffffffffffffffffffffffffff1673ffffffffffffffffffffffffffffffffffffffff168152602001838152602001828152602001935050505060405180910390a150565b60006003600083815260200190815260200160002060040160003373ffffffffffffffffffffffffffffffffffffffff1673ffffffffffffffffffffffffffffffffffffffff168152602001908152602001600020549050919050565b60008060009054906101000a900473ffffffffffffffffffffffffffffffffffffffff1673ffffffffffffffffffffffffffffffffffffffff163373ffffffffffffffffffffffffffffffffffffffff16146106c657600080fd5b60006002549050846003600083815260200190815260200160002060000190805190602001906106f7929190610de9565b5083600360008381526020019081526020016000206001019080519060200190610722929190610de9565b5082600360008381526020019081526020016000206002018190555060016003600083815260200190815260200160002060050160006101000a81548160ff021916908315150217905550600060036000838152602001908152602001600020600301819055506002600081548092919060010191905055507f7d1d82c13762b51876068c852c5d404d0fa38fb615c14eebefafb60bdb4bd1b285858584604051808060200180602001858152602001848152602001838103835287818151815260200191508051906020019080838360005b838110156108105780820151818401526020810190506107f5565b50505050905090810190601f16801561083d5780820380516001836020036101000a031916815260200191505b50838103825286818151815260200191508051906020019080838360005b8381101561087657808201518184015260208101905061085b565b50505050905090810190601f1680156108a35780820380516001836020036101000a031916815260200191505b50965050505050505060405180910390a1809150509392505050565b816003600082815260200190815260200160002060050160009054906101000a900460ff166108ed57600080fd5b8160015481023410156108ff57600080fd5b8383806003600084815260200190815260200160002060020154101561092457600080fd5b84856003600089815260200190815260200160002060030160008282540192505081905550856003600089815260200190815260200160002060020160008282540392505081905550856003600089815260200190815260200160002060040160003373ffffffffffffffffffffffffffffffffffffffff1673ffffffffffffffffffffffffffffffffffffffff168152602001908152602001600020600082825401925050819055507f15827fa78fedf80f93aa72ce61e705b1362cab60ae596b1bb327076fc3856c24338888604051808473ffffffffffffffffffffffffffffffffffffffff1673ffffffffffffffffffffffffffffffffffffffff168152602001838152602001828152602001935050505060405180910390a1600060015482029050600081340390503373ffffffffffffffffffffffffffffffffffffffff166108fc829081150290604051600060405180830381858888f19350505050158015610a97573d6000803e3d6000fd5b50505050505050505050565b60006003600083815260200190815260200160002060040160003373ffffffffffffffffffffffffffffffffffffffff1673ffffffffffffffffffffffffffffffffffffffff16815260200190815260200160002054905060008111610b0857600080fd5b8060036000848152602001908152602001600020600301600082825403925050819055508060036000848152602001908152602001600020600201600082825401925050819055503373ffffffffffffffffffffffffffffffffffffffff166108fc60015483029081150290604051600060405180830381858888f19350505050158015610b9a573d6000803e3d6000fd5b507f73ebb2050cb3ee6869929e7a26925e92e201f14902e155037f1f90af931b3233338383604051808473ffffffffffffffffffffffffffffffffffffffff1673ffffffffffffffffffffffffffffffffffffffff168152602001838152602001828152602001935050505060405180910390a15050565b606080600080600060036000878152602001908152602001600020600001600360008881526020019081526020016000206001016003600089815260200190815260200160002060020154600360008a815260200190815260200160002060030154600360008b815260200190815260200160002060050160009054906101000a900460ff16848054600181600116156101000203166002900480601f016020809104026020016040519081016040528092919081815260200182805460018160011615610100020316600290048015610d2d5780601f10610d0257610100808354040283529160200191610d2d565b820191906000526020600020905b815481529060010190602001808311610d1057829003601f168201915b50505050509450838054600181600116156101000203166002900480601f016020809104026020016040519081016040528092919081815260200182805460018160011615610100020316600290048015610dc95780601f10610d9e57610100808354040283529160200191610dc9565b820191906000526020600020905b815481529060010190602001808311610dac57829003601f168201915b505050505093509450945094509450945091939590929450565b60025481565b828054600181600116156101000203166002900490600052602060002090601f016020900481019282601f10610e2a57805160ff1916838001178555610e58565b82800160010185558215610e58579182015b82811115610e57578251825591602001919060010190610e3c565b5b509050610e659190610e69565b5090565b610e8b91905b80821115610e87576000816000905550600101610e6f565b5090565b9056fea165627a7a72305820397f650359e79bfde78928e5bc73e044a4f20d9d25b85ed1c8b267c3bff2e5bb0029",
  "source": "pragma solidity ^0.5.0;\n\n    /*\n        The EventTicketsV2 contract keeps track of the details and ticket sales of multiple events.\n     */\ncontract EventTicketsV2 {\n\n    /*\n        Define an public owner variable. Set it to the creator of the contract when it is initialized.\n    */\n    address payable owner;\n\n    uint   PRICE_TICKET = 100 wei;\n\n    /*\n        Create a variable to keep track of the event ID numbers.\n    */\n    uint public idGenerator;\n    \n    /*\n        Define an Event struct, similar to the V1 of this contract.\n        The struct has 6 fields: description, website (URL), totalTickets, sales, buyers, and isOpen.\n        Choose the appropriate variable type for each field.\n        The \"buyers\" field should keep track of addresses and how many tickets each buyer purchases.\n    */\n    struct Event {\n        string description;\n        string URL;\n        uint totalTickets;\n        uint sales;\n        mapping (address => uint) buyers;\n        bool isOpen;\n    }\n\n    /*\n        Create a mapping to keep track of the events.\n        The mapping key is an integer, the value is an Event struct.\n        Call the mapping \"events\".\n    */\n    mapping (uint => Event) events;\n\n    event LogEventAdded(string desc, string url, uint ticketsAvailable, uint eventId);\n    event LogBuyTickets(address buyer, uint eventId, uint numTickets);\n    event LogGetRefund(address accountRefunded, uint eventId, uint numTickets);\n    event LogEndSale(address owner, uint balance, uint eventId);\n\n    constructor() public{\n        owner = msg.sender;\n    }\n    /*\n        Create a modifier that throws an error if the msg.sender is not the owner.\n    */\n    modifier onlyOwner() { \n        require (msg.sender == owner); \n        _; \n    }\n\n    modifier isOpen(uint eventId) { \n        require (events[eventId].isOpen); \n        _; \n    }\n\n    modifier paidEnough(uint tickets) { \n        require (msg.value >= tickets * PRICE_TICKET); \n        _; \n    }\n\n    modifier enoughTickets(uint eventId, uint tickets) { \n        require (events[eventId].totalTickets >= tickets); \n        _; \n    }\n    \n    modifier checkValue(uint tickets) {\n        //refund them after pay for item (why it is before, _ checks for logic before func)\n        _;\n        uint cost = tickets * PRICE_TICKET;\n        uint amountToRefund = msg.value - cost;\n        msg.sender.transfer(amountToRefund);\n    }\n    \n\n    /*\n        Define a function called addEvent().\n        This function takes 3 parameters, an event description, a URL, and a number of tickets.\n        Only the contract owner should be able to call this function.\n        In the function:\n            - Set the description, URL and ticket number in a new event.\n            - set the event to open\n            - set an event ID\n            - increment the ID\n            - emit the appropriate event\n            - return the event's ID\n    */\n    function addEvent (string memory _description, string memory _URL, uint _totalTickets) \n        onlyOwner()\n        public\n        returns(uint)\n    {\n        uint eventId = idGenerator;\n        events[eventId].description = _description;\n        events[eventId].URL = _URL;\n        events[eventId].totalTickets = _totalTickets;\n        events[eventId].isOpen = true;\n        events[eventId].sales = 0;\n        idGenerator ++;\n        emit LogEventAdded(_description, _URL, _totalTickets, eventId);\n        return eventId;\n    }\n    \n\n    /*\n        Define a function called readEvent().\n        This function takes one parameter, the event ID.\n        The function returns information about the event this order:\n            1. description\n            2. URL\n            3. ticket available\n            4. sales\n            5. isOpen\n    */  \n    function readEvent (uint eventId) view public returns(string memory, string memory, uint, uint, bool) {\n        return (events[eventId].description, events[eventId].URL, events[eventId].totalTickets, events[eventId].sales, events[eventId].isOpen);     \n    }\n          \n\n    /*\n        Define a function called buyTickets().\n        This function allows users to buy tickets for a specific event.\n        This function takes 2 parameters, an event ID and a number of tickets.\n        The function checks:\n            - that the event sales are open\n            - that the transaction value is sufficient to purchase the number of tickets\n            - that there are enough tickets available to complete the purchase\n        The function:\n            - increments the purchasers ticket count\n            - increments the ticket sale count\n            - refunds any surplus value sent\n            - emits the appropriate event\n    */\n    function buyTickets (uint eventId, uint tickets)\n        isOpen(eventId)\n        paidEnough(tickets)\n        enoughTickets(eventId, tickets)\n        checkValue(tickets)\n        payable\n        public\n    {\n        events[eventId].sales += tickets;\n        events[eventId].totalTickets -= tickets;\n        events[eventId].buyers[msg.sender] += tickets;\n        emit LogBuyTickets(msg.sender, eventId, tickets);\n    }\n\n    /*\n        Define a function called getRefund().\n        This function allows users to request a refund for a specific event.\n        This function takes one parameter, the event ID.\n        TODO:\n            - check that a user has purchased tickets for the event\n            - remove refunded tickets from the sold count\n            - send appropriate value to the refund requester\n            - emit the appropriate event\n    */\n    function getRefund (uint eventId) public {\n        uint currentTickets = events[eventId].buyers[msg.sender];\n        require (currentTickets > 0);\n        events[eventId].sales -= currentTickets;\n        events[eventId].totalTickets += currentTickets;\n        msg.sender.transfer(currentTickets * PRICE_TICKET);\n        emit LogGetRefund(msg.sender, eventId, currentTickets);\n    }\n\n    /*\n        Define a function called getBuyerNumberTickets()\n        This function takes one parameter, an event ID\n        This function returns a uint, the number of tickets that the msg.sender has purchased.\n    */\n    function getBuyerNumberTickets (uint eventId) \n        view\n        public\n        returns(uint) \n    {\n        return events[eventId].buyers[msg.sender];\n    }\n\n    /*\n        Define a function called endSale()\n        This function takes one parameter, the event ID\n        Only the contract owner can call this function\n        TODO:\n            - close event sales\n            - transfer the balance from those event sales to the contract owner\n            - emit the appropriate event\n    */\n    function endSale (uint eventId) \n        public \n        onlyOwner()\n    {\n        events[eventId].isOpen = false;\n        owner.transfer(events[eventId].sales * PRICE_TICKET);\n        emit LogEndSale(owner, events[eventId].sales * PRICE_TICKET, eventId);\n    }\n}\n",
  "sourcePath": "/Users/uino/Dev/event-tickets-exercise-uino95/contracts/EventTicketsV2.sol",
  "compiler": {
    "name": "solc",
    "version": "0.5.8+commit.23d335f2.Emscripten.clang"
  },
  "schemaVersion": "3.0.11",
  "updatedAt": "2019-06-19T14:19:26.657Z",
  "devdoc": {
    "methods": {}
  },
  "userdoc": {
    "methods": {}
  }
}